{
  "_format": "hh-sol-artifact-1",
  "contractName": "Dex",
  "sourceName": "contracts/dex.sol",
  "abi": [
    {
      "inputs": [
        {
          "internalType": "address[]",
          "name": "_tokenAddr",
          "type": "address[]"
        },
        {
          "internalType": "address[]",
          "name": "_addrsForChainlink",
          "type": "address[]"
        }
      ],
      "stateMutability": "nonpayable",
      "type": "constructor"
    },
    {
      "anonymous": false,
      "inputs": [
        {
          "indexed": false,
          "internalType": "address",
          "name": "account",
          "type": "address"
        },
        {
          "indexed": false,
          "internalType": "address",
          "name": "_tokenAddr",
          "type": "address"
        },
        {
          "indexed": false,
          "internalType": "uint256",
          "name": "_cost",
          "type": "uint256"
        },
        {
          "indexed": false,
          "internalType": "uint256",
          "name": "_amount",
          "type": "uint256"
        }
      ],
      "name": "buy",
      "type": "event"
    },
    {
      "anonymous": false,
      "inputs": [
        {
          "indexed": false,
          "internalType": "address",
          "name": "account",
          "type": "address"
        },
        {
          "indexed": false,
          "internalType": "address",
          "name": "_tokenAddr",
          "type": "address"
        },
        {
          "indexed": false,
          "internalType": "uint256",
          "name": "_cost",
          "type": "uint256"
        },
        {
          "indexed": false,
          "internalType": "uint256",
          "name": "_amount",
          "type": "uint256"
        }
      ],
      "name": "sell",
      "type": "event"
    },
    {
      "inputs": [
        {
          "internalType": "address",
          "name": "_tokenAddr",
          "type": "address"
        },
        {
          "internalType": "uint256",
          "name": "_cost",
          "type": "uint256"
        }
      ],
      "name": "buyToken",
      "outputs": [],
      "stateMutability": "payable",
      "type": "function"
    },
    {
      "inputs": [
        {
          "internalType": "address",
          "name": "_tokenAddress",
          "type": "address"
        }
      ],
      "name": "getLatestPrice",
      "outputs": [
        {
          "internalType": "int256",
          "name": "",
          "type": "int256"
        }
      ],
      "stateMutability": "view",
      "type": "function"
    },
    {
      "inputs": [
        {
          "internalType": "address",
          "name": "_tokenAddr",
          "type": "address"
        },
        {
          "internalType": "uint256",
          "name": "_cost",
          "type": "uint256"
        }
      ],
      "name": "sellToken",
      "outputs": [],
      "stateMutability": "payable",
      "type": "function"
    },
    {
      "inputs": [
        {
          "internalType": "address",
          "name": "",
          "type": "address"
        }
      ],
      "name": "supportedTokenAddr",
      "outputs": [
        {
          "internalType": "bool",
          "name": "",
          "type": "bool"
        }
      ],
      "stateMutability": "view",
      "type": "function"
    },
    {
      "inputs": [
        {
          "internalType": "address",
          "name": "",
          "type": "address"
        }
      ],
      "name": "tokenInterfaceForChainlink",
      "outputs": [
        {
          "internalType": "contract AggregatorV3Interface",
          "name": "",
          "type": "address"
        }
      ],
      "stateMutability": "view",
      "type": "function"
    }
  ],
  "bytecode": "0x60806040523480156200001157600080fd5b506040516200158f3803806200158f83398181016040528101906200003791906200037d565b60005b8251811015620001865760018060008584815181106200005f576200005e62000402565b5b602002602001015173ffffffffffffffffffffffffffffffffffffffff1673ffffffffffffffffffffffffffffffffffffffff16815260200190815260200160002060006101000a81548160ff021916908315150217905550818181518110620000ce57620000cd62000402565b5b602002602001015160026000858481518110620000f057620000ef62000402565b5b602002602001015173ffffffffffffffffffffffffffffffffffffffff1673ffffffffffffffffffffffffffffffffffffffff16815260200190815260200160002060006101000a81548173ffffffffffffffffffffffffffffffffffffffff021916908373ffffffffffffffffffffffffffffffffffffffff16021790555080806200017d906200046a565b9150506200003a565b505050620004b8565b6000604051905090565b600080fd5b600080fd5b600080fd5b6000601f19601f8301169050919050565b7f4e487b7100000000000000000000000000000000000000000000000000000000600052604160045260246000fd5b620001f382620001a8565b810181811067ffffffffffffffff82111715620002155762000214620001b9565b5b80604052505050565b60006200022a6200018f565b9050620002388282620001e8565b919050565b600067ffffffffffffffff8211156200025b576200025a620001b9565b5b602082029050602081019050919050565b600080fd5b600073ffffffffffffffffffffffffffffffffffffffff82169050919050565b60006200029e8262000271565b9050919050565b620002b08162000291565b8114620002bc57600080fd5b50565b600081519050620002d081620002a5565b92915050565b6000620002ed620002e7846200023d565b6200021e565b905080838252602082019050602084028301858111156200031357620003126200026c565b5b835b818110156200034057806200032b8882620002bf565b84526020840193505060208101905062000315565b5050509392505050565b600082601f830112620003625762000361620001a3565b5b815162000374848260208601620002d6565b91505092915050565b6000806040838503121562000397576200039662000199565b5b600083015167ffffffffffffffff811115620003b857620003b76200019e565b5b620003c6858286016200034a565b925050602083015167ffffffffffffffff811115620003ea57620003e96200019e565b5b620003f8858286016200034a565b9150509250929050565b7f4e487b7100000000000000000000000000000000000000000000000000000000600052603260045260246000fd5b7f4e487b7100000000000000000000000000000000000000000000000000000000600052601160045260246000fd5b6000819050919050565b6000620004778262000460565b91507fffffffffffffffffffffffffffffffffffffffffffffffffffffffffffffffff821415620004ad57620004ac62000431565b5b600182019050919050565b6110c780620004c86000396000f3fe60806040526004361061004a5760003560e01c8063096db4d61461004f57806316345f181461008c57806368f8fc10146100c9578063ac9e969b146100e5578063f464e7db14610122575b600080fd5b34801561005b57600080fd5b506100766004803603810190610071919061086b565b61013e565b60405161008391906108b3565b60405180910390f35b34801561009857600080fd5b506100b360048036038101906100ae919061086b565b61015e565b6040516100c091906108e7565b60405180910390f35b6100e360048036038101906100de9190610938565b610262565b005b3480156100f157600080fd5b5061010c6004803603810190610107919061086b565b61050e565b60405161011991906109d7565b60405180910390f35b61013c60048036038101906101379190610938565b610541565b005b60016020528060005260406000206000915054906101000a900460ff1681565b600080600260008473ffffffffffffffffffffffffffffffffffffffff1673ffffffffffffffffffffffffffffffffffffffff16815260200190815260200160002060009054906101000a900473ffffffffffffffffffffffffffffffffffffffff16905060008173ffffffffffffffffffffffffffffffffffffffff1663feaf968c6040518163ffffffff1660e01b815260040160a06040518083038186803b15801561020b57600080fd5b505afa15801561021f573d6000803e3d6000fd5b505050506040513d601f19601f820116820180604052508101906102439190610a75565b5050509150506305f5e100816102599190610b4e565b92505050919050565b8160011515600160008373ffffffffffffffffffffffffffffffffffffffff1673ffffffffffffffffffffffffffffffffffffffff16815260200190815260200160002060009054906101000a900460ff161515146102f6576040517f08c379a00000000000000000000000000000000000000000000000000000000081526004016102ed90610c15565b60405180910390fd5b600083905082341461033d576040517f08c379a000000000000000000000000000000000000000000000000000000000815260040161033490610c81565b60405180910390fd5b60006103488561015e565b9050600081856103589190610ca1565b82866103649190610cd2565b61036e9190610d03565b9050808373ffffffffffffffffffffffffffffffffffffffff166370a08231306040518263ffffffff1660e01b81526004016103aa9190610d46565b60206040518083038186803b1580156103c257600080fd5b505afa1580156103d6573d6000803e3d6000fd5b505050506040513d601f19601f820116820180604052508101906103fa9190610d61565b101561043b576040517f08c379a000000000000000000000000000000000000000000000000000000000815260040161043290610dda565b60405180910390fd5b8273ffffffffffffffffffffffffffffffffffffffff1663a9059cbb33836040518363ffffffff1660e01b8152600401610476929190610e09565b602060405180830381600087803b15801561049057600080fd5b505af11580156104a4573d6000803e3d6000fd5b505050506040513d601f19601f820116820180604052508101906104c89190610e5e565b507fa9d424e2b661a4cf6090e4849fd2d81c17106afa4b26188dcc493a69ea4c2b5e338787846040516104fe9493929190610e8b565b60405180910390a1505050505050565b60026020528060005260406000206000915054906101000a900473ffffffffffffffffffffffffffffffffffffffff1681565b6000829050818173ffffffffffffffffffffffffffffffffffffffff166370a08231336040518263ffffffff1660e01b81526004016105809190610d46565b60206040518083038186803b15801561059857600080fd5b505afa1580156105ac573d6000803e3d6000fd5b505050506040513d601f19601f820116820180604052508101906105d09190610d61565b1015610611576040517f08c379a000000000000000000000000000000000000000000000000000000000815260040161060890610f1c565b60405180910390fd5b600061061c8461015e565b90506000818461062c9190610ca1565b82856106389190610cd2565b6106429190610d03565b905080471015610687576040517f08c379a000000000000000000000000000000000000000000000000000000000815260040161067e90610f88565b60405180910390fd5b8273ffffffffffffffffffffffffffffffffffffffff166323b872dd3330876040518463ffffffff1660e01b81526004016106c493929190610fa8565b602060405180830381600087803b1580156106de57600080fd5b505af11580156106f2573d6000803e3d6000fd5b505050506040513d601f19601f820116820180604052508101906107169190610e5e565b5060003373ffffffffffffffffffffffffffffffffffffffff168260405161073d90611010565b60006040518083038185875af1925050503d806000811461077a576040519150601f19603f3d011682016040523d82523d6000602084013e61077f565b606091505b50509050806107c3576040517f08c379a00000000000000000000000000000000000000000000000000000000081526004016107ba90611071565b60405180910390fd5b7f31de7d15e9e6c3b6f319c842341b735c0f9d7a5d06944314495f952400bd74c0338787856040516107f89493929190610e8b565b60405180910390a1505050505050565b600080fd5b600073ffffffffffffffffffffffffffffffffffffffff82169050919050565b60006108388261080d565b9050919050565b6108488161082d565b811461085357600080fd5b50565b6000813590506108658161083f565b92915050565b60006020828403121561088157610880610808565b5b600061088f84828501610856565b91505092915050565b60008115159050919050565b6108ad81610898565b82525050565b60006020820190506108c860008301846108a4565b92915050565b6000819050919050565b6108e1816108ce565b82525050565b60006020820190506108fc60008301846108d8565b92915050565b6000819050919050565b61091581610902565b811461092057600080fd5b50565b6000813590506109328161090c565b92915050565b6000806040838503121561094f5761094e610808565b5b600061095d85828601610856565b925050602061096e85828601610923565b9150509250929050565b6000819050919050565b600061099d6109986109938461080d565b610978565b61080d565b9050919050565b60006109af82610982565b9050919050565b60006109c1826109a4565b9050919050565b6109d1816109b6565b82525050565b60006020820190506109ec60008301846109c8565b92915050565b600069ffffffffffffffffffff82169050919050565b610a11816109f2565b8114610a1c57600080fd5b50565b600081519050610a2e81610a08565b92915050565b610a3d816108ce565b8114610a4857600080fd5b50565b600081519050610a5a81610a34565b92915050565b600081519050610a6f8161090c565b92915050565b600080600080600060a08688031215610a9157610a90610808565b5b6000610a9f88828901610a1f565b9550506020610ab088828901610a4b565b9450506040610ac188828901610a60565b9350506060610ad288828901610a60565b9250506080610ae388828901610a1f565b9150509295509295909350565b7f4e487b7100000000000000000000000000000000000000000000000000000000600052601260045260246000fd5b7f4e487b7100000000000000000000000000000000000000000000000000000000600052601160045260246000fd5b6000610b59826108ce565b9150610b64836108ce565b925082610b7457610b73610af0565b5b600160000383147f800000000000000000000000000000000000000000000000000000000000000083141615610bad57610bac610b1f565b5b828205905092915050565b600082825260208201905092915050565b7f5468697320746f6b656e206973206e6f7420737570706f727465640000000000600082015250565b6000610bff601b83610bb8565b9150610c0a82610bc9565b602082019050919050565b60006020820190508181036000830152610c2e81610bf2565b9050919050565b7f496e73756666696369656e742066756e64000000000000000000000000000000600082015250565b6000610c6b601183610bb8565b9150610c7682610c35565b602082019050919050565b60006020820190508181036000830152610c9a81610c5e565b9050919050565b6000610cac82610902565b9150610cb783610902565b925082610cc757610cc6610af0565b5b828206905092915050565b6000610cdd82610902565b9150610ce883610902565b925082610cf857610cf7610af0565b5b828204905092915050565b6000610d0e82610902565b9150610d1983610902565b925082821015610d2c57610d2b610b1f565b5b828203905092915050565b610d408161082d565b82525050565b6000602082019050610d5b6000830184610d37565b92915050565b600060208284031215610d7757610d76610808565b5b6000610d8584828501610a60565b91505092915050565b7f546f6b656e20736f6c64206f7574000000000000000000000000000000000000600082015250565b6000610dc4600e83610bb8565b9150610dcf82610d8e565b602082019050919050565b60006020820190508181036000830152610df381610db7565b9050919050565b610e0381610902565b82525050565b6000604082019050610e1e6000830185610d37565b610e2b6020830184610dfa565b9392505050565b610e3b81610898565b8114610e4657600080fd5b50565b600081519050610e5881610e32565b92915050565b600060208284031215610e7457610e73610808565b5b6000610e8284828501610e49565b91505092915050565b6000608082019050610ea06000830187610d37565b610ead6020830186610d37565b610eba6040830185610dfa565b610ec76060830184610dfa565b95945050505050565b7f496e73756666696369656e7420746f6b656e2062616c616e6365000000000000600082015250565b6000610f06601a83610bb8565b9150610f1182610ed0565b602082019050919050565b60006020820190508181036000830152610f3581610ef9565b9050919050565b7f44657820646f6573206e6f74206861766520656e6f7567682066756e64730000600082015250565b6000610f72601e83610bb8565b9150610f7d82610f3c565b602082019050919050565b60006020820190508181036000830152610fa181610f65565b9050919050565b6000606082019050610fbd6000830186610d37565b610fca6020830185610d37565b610fd76040830184610dfa565b949350505050565b600081905092915050565b50565b6000610ffa600083610fdf565b915061100582610fea565b600082019050919050565b600061101b82610fed565b9150819050919050565b7f455448207472616e73666572206661696c656400000000000000000000000000600082015250565b600061105b601383610bb8565b915061106682611025565b602082019050919050565b6000602082019050818103600083015261108a8161104e565b905091905056fea26469706673582212206a5da3abb8d0c912c57cfc97acc3ba5f4a1b5c157169a6ff519830e435f6ad8a64736f6c63430008090033",
  "linkReferences": {},
  "deployedLinkReferences": {}
}