{
  "_format": "hh-sol-artifact-1",
  "contractName": "Dex",
  "sourceName": "contracts/dex.sol",
  "abi": [
    {
      "inputs": [
        {
          "internalType": "address[]",
          "name": "_tokenAddrs",
          "type": "address[]"
        },
        {
          "internalType": "address[]",
          "name": "_addrsForChainlink",
          "type": "address[]"
        }
      ],
      "stateMutability": "nonpayable",
      "type": "constructor"
    },
    {
      "anonymous": false,
      "inputs": [
        {
          "indexed": false,
          "internalType": "address",
          "name": "account",
          "type": "address"
        },
        {
          "indexed": false,
          "internalType": "address",
          "name": "_tokenAddr",
          "type": "address"
        },
        {
          "indexed": false,
          "internalType": "uint256",
          "name": "_cost",
          "type": "uint256"
        },
        {
          "indexed": false,
          "internalType": "uint256",
          "name": "_amount",
          "type": "uint256"
        }
      ],
      "name": "buy",
      "type": "event"
    },
    {
      "anonymous": false,
      "inputs": [
        {
          "indexed": false,
          "internalType": "address",
          "name": "account",
          "type": "address"
        },
        {
          "indexed": false,
          "internalType": "address",
          "name": "_tokenAddr",
          "type": "address"
        },
        {
          "indexed": false,
          "internalType": "uint256",
          "name": "_cost",
          "type": "uint256"
        },
        {
          "indexed": false,
          "internalType": "uint256",
          "name": "_amount",
          "type": "uint256"
        }
      ],
      "name": "sell",
      "type": "event"
    },
    {
      "inputs": [
        {
          "internalType": "address",
          "name": "_tokenAddr",
          "type": "address"
        },
        {
          "internalType": "uint256",
          "name": "_cost",
          "type": "uint256"
        }
      ],
      "name": "buyToken",
      "outputs": [],
      "stateMutability": "payable",
      "type": "function"
    },
    {
      "inputs": [],
      "name": "feed",
      "outputs": [
        {
          "internalType": "contract AggregatorV3Interface",
          "name": "",
          "type": "address"
        }
      ],
      "stateMutability": "view",
      "type": "function"
    },
    {
      "inputs": [],
      "name": "getLatestPrice",
      "outputs": [
        {
          "internalType": "int256",
          "name": "",
          "type": "int256"
        }
      ],
      "stateMutability": "view",
      "type": "function"
    },
    {
      "inputs": [
        {
          "internalType": "address",
          "name": "_tokenAddr",
          "type": "address"
        },
        {
          "internalType": "uint256",
          "name": "_amount",
          "type": "uint256"
        }
      ],
      "name": "sellToken",
      "outputs": [],
      "stateMutability": "nonpayable",
      "type": "function"
    },
    {
      "inputs": [
        {
          "internalType": "address",
          "name": "",
          "type": "address"
        }
      ],
      "name": "supportedTokenAddr",
      "outputs": [
        {
          "internalType": "address",
          "name": "",
          "type": "address"
        }
      ],
      "stateMutability": "view",
      "type": "function"
    }
  ],
  "bytecode": "0x60806040523480156200001157600080fd5b50604051620015b1380380620015b1833981810160405281019062000037919062000308565b60005b825181101562000111578181815181106200005a57620000596200038d565b5b60200260200101516000808584815181106200007b576200007a6200038d565b5b602002602001015173ffffffffffffffffffffffffffffffffffffffff1673ffffffffffffffffffffffffffffffffffffffff16815260200190815260200160002060006101000a81548173ffffffffffffffffffffffffffffffffffffffff021916908373ffffffffffffffffffffffffffffffffffffffff16021790555080806200010890620003f5565b9150506200003a565b50505062000443565b6000604051905090565b600080fd5b600080fd5b600080fd5b6000601f19601f8301169050919050565b7f4e487b7100000000000000000000000000000000000000000000000000000000600052604160045260246000fd5b6200017e8262000133565b810181811067ffffffffffffffff82111715620001a0576200019f62000144565b5b80604052505050565b6000620001b56200011a565b9050620001c3828262000173565b919050565b600067ffffffffffffffff821115620001e657620001e562000144565b5b602082029050602081019050919050565b600080fd5b600073ffffffffffffffffffffffffffffffffffffffff82169050919050565b60006200022982620001fc565b9050919050565b6200023b816200021c565b81146200024757600080fd5b50565b6000815190506200025b8162000230565b92915050565b6000620002786200027284620001c8565b620001a9565b905080838252602082019050602084028301858111156200029e576200029d620001f7565b5b835b81811015620002cb5780620002b688826200024a565b845260208401935050602081019050620002a0565b5050509392505050565b600082601f830112620002ed57620002ec6200012e565b5b8151620002ff84826020860162000261565b91505092915050565b6000806040838503121562000322576200032162000124565b5b600083015167ffffffffffffffff81111562000343576200034262000129565b5b6200035185828601620002d5565b925050602083015167ffffffffffffffff81111562000375576200037462000129565b5b6200038385828601620002d5565b9150509250929050565b7f4e487b7100000000000000000000000000000000000000000000000000000000600052603260045260246000fd5b7f4e487b7100000000000000000000000000000000000000000000000000000000600052601160045260246000fd5b6000819050919050565b60006200040282620003eb565b91507fffffffffffffffffffffffffffffffffffffffffffffffffffffffffffffffff821415620004385762000437620003bc565b5b600182019050919050565b61115e80620004536000396000f3fe60806040526004361061004a5760003560e01c8063096db4d61461004f57806337a7b7d81461008c57806368f8fc10146100b75780638e15f473146100d3578063f464e7db146100fe575b600080fd5b34801561005b57600080fd5b50610076600480360381019061007191906109a1565b610127565b60405161008391906109dd565b60405180910390f35b34801561009857600080fd5b506100a161015a565b6040516100ae9190610a57565b60405180910390f35b6100d160048036038101906100cc9190610aa8565b610180565b005b3480156100df57600080fd5b506100e8610451565b6040516100f59190610b01565b60405180910390f35b34801561010a57600080fd5b5061012560048036038101906101209190610aa8565b610501565b005b60006020528060005260406000206000915054906101000a900473ffffffffffffffffffffffffffffffffffffffff1681565b600160009054906101000a900473ffffffffffffffffffffffffffffffffffffffff1681565b81600073ffffffffffffffffffffffffffffffffffffffff166000808373ffffffffffffffffffffffffffffffffffffffff1673ffffffffffffffffffffffffffffffffffffffff16815260200190815260200160002060009054906101000a900473ffffffffffffffffffffffffffffffffffffffff1673ffffffffffffffffffffffffffffffffffffffff16141561024f576040517f08c379a000000000000000000000000000000000000000000000000000000000815260040161024690610b79565b60405180910390fd5b6000839050823414610296576040517f08c379a000000000000000000000000000000000000000000000000000000000815260040161028d90610be5565b60405180910390fd5b60006102a185610882565b9050600081856102b19190610c63565b9050808373ffffffffffffffffffffffffffffffffffffffff166370a08231306040518263ffffffff1660e01b81526004016102ed91906109dd565b60206040518083038186803b15801561030557600080fd5b505afa158015610319573d6000803e3d6000fd5b505050506040513d601f19601f8201168201806040525081019061033d9190610ca9565b101561037e576040517f08c379a000000000000000000000000000000000000000000000000000000000815260040161037590610d22565b60405180910390fd5b8273ffffffffffffffffffffffffffffffffffffffff1663a9059cbb33836040518363ffffffff1660e01b81526004016103b9929190610d51565b602060405180830381600087803b1580156103d357600080fd5b505af11580156103e7573d6000803e3d6000fd5b505050506040513d601f19601f8201168201806040525081019061040b9190610db2565b507fa9d424e2b661a4cf6090e4849fd2d81c17106afa4b26188dcc493a69ea4c2b5e338787846040516104419493929190610ddf565b60405180910390a1505050505050565b600080600160009054906101000a900473ffffffffffffffffffffffffffffffffffffffff1673ffffffffffffffffffffffffffffffffffffffff1663feaf968c6040518163ffffffff1660e01b815260040160a06040518083038186803b1580156104bc57600080fd5b505afa1580156104d0573d6000803e3d6000fd5b505050506040513d601f19601f820116820180604052508101906104f49190610e92565b5050509150508091505090565b81600073ffffffffffffffffffffffffffffffffffffffff166000808373ffffffffffffffffffffffffffffffffffffffff1673ffffffffffffffffffffffffffffffffffffffff16815260200190815260200160002060009054906101000a900473ffffffffffffffffffffffffffffffffffffffff1673ffffffffffffffffffffffffffffffffffffffff1614156105d0576040517f08c379a00000000000000000000000000000000000000000000000000000000081526004016105c790610b79565b60405180910390fd5b6000839050828173ffffffffffffffffffffffffffffffffffffffff166370a08231336040518263ffffffff1660e01b815260040161060f91906109dd565b60206040518083038186803b15801561062757600080fd5b505afa15801561063b573d6000803e3d6000fd5b505050506040513d601f19601f8201168201806040525081019061065f9190610ca9565b10156106a0576040517f08c379a000000000000000000000000000000000000000000000000000000000815260040161069790610f59565b60405180910390fd5b60006106ab85610882565b9050600081856106bb9190610f79565b905080471015610700576040517f08c379a00000000000000000000000000000000000000000000000000000000081526004016106f79061101f565b60405180910390fd5b8273ffffffffffffffffffffffffffffffffffffffff166323b872dd3330886040518463ffffffff1660e01b815260040161073d9392919061103f565b602060405180830381600087803b15801561075757600080fd5b505af115801561076b573d6000803e3d6000fd5b505050506040513d601f19601f8201168201806040525081019061078f9190610db2565b5060003373ffffffffffffffffffffffffffffffffffffffff16826040516107b6906110a7565b60006040518083038185875af1925050503d80600081146107f3576040519150601f19603f3d011682016040523d82523d6000602084013e6107f8565b606091505b505090508061083c576040517f08c379a000000000000000000000000000000000000000000000000000000000815260040161083390611108565b60405180910390fd5b7f31de7d15e9e6c3b6f319c842341b735c0f9d7a5d06944314495f952400bd74c0338884896040516108719493929190610ddf565b60405180910390a150505050505050565b600061088d8261089c565b610895610451565b9050919050565b6000808273ffffffffffffffffffffffffffffffffffffffff1673ffffffffffffffffffffffffffffffffffffffff16815260200190815260200160002060009054906101000a900473ffffffffffffffffffffffffffffffffffffffff16600160006101000a81548173ffffffffffffffffffffffffffffffffffffffff021916908373ffffffffffffffffffffffffffffffffffffffff16021790555050565b600080fd5b600073ffffffffffffffffffffffffffffffffffffffff82169050919050565b600061096e82610943565b9050919050565b61097e81610963565b811461098957600080fd5b50565b60008135905061099b81610975565b92915050565b6000602082840312156109b7576109b661093e565b5b60006109c58482850161098c565b91505092915050565b6109d781610963565b82525050565b60006020820190506109f260008301846109ce565b92915050565b6000819050919050565b6000610a1d610a18610a1384610943565b6109f8565b610943565b9050919050565b6000610a2f82610a02565b9050919050565b6000610a4182610a24565b9050919050565b610a5181610a36565b82525050565b6000602082019050610a6c6000830184610a48565b92915050565b6000819050919050565b610a8581610a72565b8114610a9057600080fd5b50565b600081359050610aa281610a7c565b92915050565b60008060408385031215610abf57610abe61093e565b5b6000610acd8582860161098c565b9250506020610ade85828601610a93565b9150509250929050565b6000819050919050565b610afb81610ae8565b82525050565b6000602082019050610b166000830184610af2565b92915050565b600082825260208201905092915050565b7f5468697320746f6b656e206973206e6f7420737570706f727465640000000000600082015250565b6000610b63601b83610b1c565b9150610b6e82610b2d565b602082019050919050565b60006020820190508181036000830152610b9281610b56565b9050919050565b7f496e73756666696369656e742066756e64000000000000000000000000000000600082015250565b6000610bcf601183610b1c565b9150610bda82610b99565b602082019050919050565b60006020820190508181036000830152610bfe81610bc2565b9050919050565b7f4e487b7100000000000000000000000000000000000000000000000000000000600052601260045260246000fd5b7f4e487b7100000000000000000000000000000000000000000000000000000000600052601160045260246000fd5b6000610c6e82610a72565b9150610c7983610a72565b925082610c8957610c88610c05565b5b828204905092915050565b600081519050610ca381610a7c565b92915050565b600060208284031215610cbf57610cbe61093e565b5b6000610ccd84828501610c94565b91505092915050565b7f546f6b656e20736f6c64206f7574000000000000000000000000000000000000600082015250565b6000610d0c600e83610b1c565b9150610d1782610cd6565b602082019050919050565b60006020820190508181036000830152610d3b81610cff565b9050919050565b610d4b81610a72565b82525050565b6000604082019050610d6660008301856109ce565b610d736020830184610d42565b9392505050565b60008115159050919050565b610d8f81610d7a565b8114610d9a57600080fd5b50565b600081519050610dac81610d86565b92915050565b600060208284031215610dc857610dc761093e565b5b6000610dd684828501610d9d565b91505092915050565b6000608082019050610df460008301876109ce565b610e0160208301866109ce565b610e0e6040830185610d42565b610e1b6060830184610d42565b95945050505050565b600069ffffffffffffffffffff82169050919050565b610e4381610e24565b8114610e4e57600080fd5b50565b600081519050610e6081610e3a565b92915050565b610e6f81610ae8565b8114610e7a57600080fd5b50565b600081519050610e8c81610e66565b92915050565b600080600080600060a08688031215610eae57610ead61093e565b5b6000610ebc88828901610e51565b9550506020610ecd88828901610e7d565b9450506040610ede88828901610c94565b9350506060610eef88828901610c94565b9250506080610f0088828901610e51565b9150509295509295909350565b7f496e73756666696369656e7420746f6b656e2062616c616e6365000000000000600082015250565b6000610f43601a83610b1c565b9150610f4e82610f0d565b602082019050919050565b60006020820190508181036000830152610f7281610f36565b9050919050565b6000610f8482610a72565b9150610f8f83610a72565b9250817fffffffffffffffffffffffffffffffffffffffffffffffffffffffffffffffff0483118215151615610fc857610fc7610c34565b5b828202905092915050565b7f44657820646f6573206e6f74206861766520656e6f7567682066756e64730000600082015250565b6000611009601e83610b1c565b915061101482610fd3565b602082019050919050565b6000602082019050818103600083015261103881610ffc565b9050919050565b600060608201905061105460008301866109ce565b61106160208301856109ce565b61106e6040830184610d42565b949350505050565b600081905092915050565b50565b6000611091600083611076565b915061109c82611081565b600082019050919050565b60006110b282611084565b9150819050919050565b7f455448207472616e73666572206661696c656400000000000000000000000000600082015250565b60006110f2601383610b1c565b91506110fd826110bc565b602082019050919050565b60006020820190508181036000830152611121816110e5565b905091905056fea26469706673582212207f7b8767cde50eb64973c0eb0b427116a36c778e8f80e99596df676313566d9b64736f6c63430008090033",
  "linkReferences": {},
  "deployedLinkReferences": {}
}