{
  "_format": "hh-sol-artifact-1",
  "contractName": "Dex",
  "sourceName": "contracts/dex.sol",
  "abi": [
    {
      "inputs": [
        {
          "internalType": "address[]",
          "name": "_tokenAddr",
          "type": "address[]"
        }
      ],
      "stateMutability": "nonpayable",
      "type": "constructor"
    },
    {
      "anonymous": false,
      "inputs": [
        {
          "indexed": false,
          "internalType": "address",
          "name": "account",
          "type": "address"
        },
        {
          "indexed": false,
          "internalType": "address",
          "name": "_tokenAddr",
          "type": "address"
        },
        {
          "indexed": false,
          "internalType": "uint256",
          "name": "_cost",
          "type": "uint256"
        },
        {
          "indexed": false,
          "internalType": "uint256",
          "name": "_amount",
          "type": "uint256"
        }
      ],
      "name": "buy",
      "type": "event"
    },
    {
      "anonymous": false,
      "inputs": [
        {
          "indexed": false,
          "internalType": "address",
          "name": "account",
          "type": "address"
        },
        {
          "indexed": false,
          "internalType": "address",
          "name": "_tokenAddr",
          "type": "address"
        },
        {
          "indexed": false,
          "internalType": "uint256",
          "name": "_cost",
          "type": "uint256"
        },
        {
          "indexed": false,
          "internalType": "uint256",
          "name": "_amount",
          "type": "uint256"
        }
      ],
      "name": "sell",
      "type": "event"
    },
    {
      "inputs": [
        {
          "internalType": "address",
          "name": "_tokenAddr",
          "type": "address"
        },
        {
          "internalType": "uint256",
          "name": "_cost",
          "type": "uint256"
        },
        {
          "internalType": "uint256",
          "name": "_amount",
          "type": "uint256"
        }
      ],
      "name": "buyToken",
      "outputs": [],
      "stateMutability": "payable",
      "type": "function"
    },
    {
      "inputs": [
        {
          "internalType": "address",
          "name": "_tokenAddr",
          "type": "address"
        },
        {
          "internalType": "uint256",
          "name": "_cost",
          "type": "uint256"
        },
        {
          "internalType": "uint256",
          "name": "_amount",
          "type": "uint256"
        }
      ],
      "name": "sellToken",
      "outputs": [],
      "stateMutability": "payable",
      "type": "function"
    },
    {
      "inputs": [
        {
          "internalType": "address",
          "name": "",
          "type": "address"
        }
      ],
      "name": "supportedTokenAddr",
      "outputs": [
        {
          "internalType": "bool",
          "name": "",
          "type": "bool"
        }
      ],
      "stateMutability": "view",
      "type": "function"
    }
  ],
  "bytecode": "0x60806040523480156200001157600080fd5b5060405162000f9038038062000f908339818101604052810190620000379190620002c4565b60005b8151811015620000ce5760016000808484815181106200005f576200005e62000315565b5b602002602001015173ffffffffffffffffffffffffffffffffffffffff1673ffffffffffffffffffffffffffffffffffffffff16815260200190815260200160002060006101000a81548160ff0219169083151502179055508080620000c5906200037d565b9150506200003a565b5050620003cb565b6000604051905090565b600080fd5b600080fd5b600080fd5b6000601f19601f8301169050919050565b7f4e487b7100000000000000000000000000000000000000000000000000000000600052604160045260246000fd5b6200013a82620000ef565b810181811067ffffffffffffffff821117156200015c576200015b62000100565b5b80604052505050565b600062000171620000d6565b90506200017f82826200012f565b919050565b600067ffffffffffffffff821115620001a257620001a162000100565b5b602082029050602081019050919050565b600080fd5b600073ffffffffffffffffffffffffffffffffffffffff82169050919050565b6000620001e582620001b8565b9050919050565b620001f781620001d8565b81146200020357600080fd5b50565b6000815190506200021781620001ec565b92915050565b6000620002346200022e8462000184565b62000165565b905080838252602082019050602084028301858111156200025a5762000259620001b3565b5b835b8181101562000287578062000272888262000206565b8452602084019350506020810190506200025c565b5050509392505050565b600082601f830112620002a957620002a8620000ea565b5b8151620002bb8482602086016200021d565b91505092915050565b600060208284031215620002dd57620002dc620000e0565b5b600082015167ffffffffffffffff811115620002fe57620002fd620000e5565b5b6200030c8482850162000291565b91505092915050565b7f4e487b7100000000000000000000000000000000000000000000000000000000600052603260045260246000fd5b7f4e487b7100000000000000000000000000000000000000000000000000000000600052601160045260246000fd5b6000819050919050565b60006200038a8262000373565b91507fffffffffffffffffffffffffffffffffffffffffffffffffffffffffffffffff821415620003c057620003bf62000344565b5b600182019050919050565b610bb580620003db6000396000f3fe6080604052600436106100345760003560e01c8063096db4d6146100395780633e11741f14610076578063e671499b14610092575b600080fd5b34801561004557600080fd5b50610060600480360381019061005b919061063b565b6100ae565b60405161006d9190610683565b60405180910390f35b610090600480360381019061008b91906106d4565b6100ce565b005b6100ac60048036038101906100a791906106d4565b610361565b005b60006020528060005260406000206000915054906101000a900460ff1681565b6000839050828173ffffffffffffffffffffffffffffffffffffffff166370a08231336040518263ffffffff1660e01b815260040161010d9190610736565b60206040518083038186803b15801561012557600080fd5b505afa158015610139573d6000803e3d6000fd5b505050506040513d601f19601f8201168201806040525081019061015d9190610766565b101561019e576040517f08c379a0000000000000000000000000000000000000000000000000000000008152600401610195906107f0565b60405180910390fd5b814710156101e1576040517f08c379a00000000000000000000000000000000000000000000000000000000081526004016101d89061085c565b60405180910390fd5b8073ffffffffffffffffffffffffffffffffffffffff166323b872dd3330866040518463ffffffff1660e01b815260040161021e9392919061088b565b602060405180830381600087803b15801561023857600080fd5b505af115801561024c573d6000803e3d6000fd5b505050506040513d601f19601f8201168201806040525081019061027091906108ee565b5060003373ffffffffffffffffffffffffffffffffffffffff16836040516102979061094c565b60006040518083038185875af1925050503d80600081146102d4576040519150601f19603f3d011682016040523d82523d6000602084013e6102d9565b606091505b505090508061031d576040517f08c379a0000000000000000000000000000000000000000000000000000000008152600401610314906109ad565b60405180910390fd5b7f31de7d15e9e6c3b6f319c842341b735c0f9d7a5d06944314495f952400bd74c03386868660405161035294939291906109cd565b60405180910390a15050505050565b82600115156000808373ffffffffffffffffffffffffffffffffffffffff1673ffffffffffffffffffffffffffffffffffffffff16815260200190815260200160002060009054906101000a900460ff161515146103f4576040517f08c379a00000000000000000000000000000000000000000000000000000000081526004016103eb90610a5e565b60405180910390fd5b600084905083341461043b576040517f08c379a000000000000000000000000000000000000000000000000000000000815260040161043290610aca565b60405180910390fd5b828173ffffffffffffffffffffffffffffffffffffffff166370a08231306040518263ffffffff1660e01b81526004016104759190610736565b60206040518083038186803b15801561048d57600080fd5b505afa1580156104a1573d6000803e3d6000fd5b505050506040513d601f19601f820116820180604052508101906104c59190610766565b1015610506576040517f08c379a00000000000000000000000000000000000000000000000000000000081526004016104fd90610b36565b60405180910390fd5b8073ffffffffffffffffffffffffffffffffffffffff1663a9059cbb33856040518363ffffffff1660e01b8152600401610541929190610b56565b602060405180830381600087803b15801561055b57600080fd5b505af115801561056f573d6000803e3d6000fd5b505050506040513d601f19601f8201168201806040525081019061059391906108ee565b507fa9d424e2b661a4cf6090e4849fd2d81c17106afa4b26188dcc493a69ea4c2b5e338686866040516105c994939291906109cd565b60405180910390a15050505050565b600080fd5b600073ffffffffffffffffffffffffffffffffffffffff82169050919050565b6000610608826105dd565b9050919050565b610618816105fd565b811461062357600080fd5b50565b6000813590506106358161060f565b92915050565b600060208284031215610651576106506105d8565b5b600061065f84828501610626565b91505092915050565b60008115159050919050565b61067d81610668565b82525050565b60006020820190506106986000830184610674565b92915050565b6000819050919050565b6106b18161069e565b81146106bc57600080fd5b50565b6000813590506106ce816106a8565b92915050565b6000806000606084860312156106ed576106ec6105d8565b5b60006106fb86828701610626565b935050602061070c868287016106bf565b925050604061071d868287016106bf565b9150509250925092565b610730816105fd565b82525050565b600060208201905061074b6000830184610727565b92915050565b600081519050610760816106a8565b92915050565b60006020828403121561077c5761077b6105d8565b5b600061078a84828501610751565b91505092915050565b600082825260208201905092915050565b7f496e73756666696369656e7420746f6b656e2062616c616e6365000000000000600082015250565b60006107da601a83610793565b91506107e5826107a4565b602082019050919050565b60006020820190508181036000830152610809816107cd565b9050919050565b7f44657820646f6573206e6f74206861766520656e6f7567682066756e64730000600082015250565b6000610846601e83610793565b915061085182610810565b602082019050919050565b6000602082019050818103600083015261087581610839565b9050919050565b6108858161069e565b82525050565b60006060820190506108a06000830186610727565b6108ad6020830185610727565b6108ba604083018461087c565b949350505050565b6108cb81610668565b81146108d657600080fd5b50565b6000815190506108e8816108c2565b92915050565b600060208284031215610904576109036105d8565b5b6000610912848285016108d9565b91505092915050565b600081905092915050565b50565b600061093660008361091b565b915061094182610926565b600082019050919050565b600061095782610929565b9150819050919050565b7f455448207472616e73666572206661696c656400000000000000000000000000600082015250565b6000610997601383610793565b91506109a282610961565b602082019050919050565b600060208201905081810360008301526109c68161098a565b9050919050565b60006080820190506109e26000830187610727565b6109ef6020830186610727565b6109fc604083018561087c565b610a09606083018461087c565b95945050505050565b7f5468697320746f6b656e206973206e6f7420737570706f727465640000000000600082015250565b6000610a48601b83610793565b9150610a5382610a12565b602082019050919050565b60006020820190508181036000830152610a7781610a3b565b9050919050565b7f496e73756666696369656e742066756e64000000000000000000000000000000600082015250565b6000610ab4601183610793565b9150610abf82610a7e565b602082019050919050565b60006020820190508181036000830152610ae381610aa7565b9050919050565b7f546f6b656e20736f6c64206f7574000000000000000000000000000000000000600082015250565b6000610b20600e83610793565b9150610b2b82610aea565b602082019050919050565b60006020820190508181036000830152610b4f81610b13565b9050919050565b6000604082019050610b6b6000830185610727565b610b78602083018461087c565b939250505056fea26469706673582212209fab94a10cd84be638db52381be544b2465f9bf5103f57e87234473908edfb9c64736f6c63430008090033",
  "linkReferences": {},
  "deployedLinkReferences": {}
}