{
  "_format": "hh-sol-artifact-1",
  "contractName": "Dex",
  "sourceName": "contracts/dex.sol",
  "abi": [
    {
      "inputs": [
        {
          "internalType": "address[]",
          "name": "_tokenAddrs",
          "type": "address[]"
        },
        {
          "internalType": "address[]",
          "name": "_addrsForChainlink",
          "type": "address[]"
        }
      ],
      "stateMutability": "nonpayable",
      "type": "constructor"
    },
    {
      "anonymous": false,
      "inputs": [
        {
          "indexed": false,
          "internalType": "address",
          "name": "account",
          "type": "address"
        },
        {
          "indexed": false,
          "internalType": "address",
          "name": "_tokenAddr",
          "type": "address"
        },
        {
          "indexed": false,
          "internalType": "uint256",
          "name": "_cost",
          "type": "uint256"
        },
        {
          "indexed": false,
          "internalType": "uint256",
          "name": "_amount",
          "type": "uint256"
        }
      ],
      "name": "buy",
      "type": "event"
    },
    {
      "anonymous": false,
      "inputs": [
        {
          "indexed": false,
          "internalType": "address",
          "name": "account",
          "type": "address"
        },
        {
          "indexed": false,
          "internalType": "address",
          "name": "_tokenAddr",
          "type": "address"
        },
        {
          "indexed": false,
          "internalType": "uint256",
          "name": "_cost",
          "type": "uint256"
        },
        {
          "indexed": false,
          "internalType": "uint256",
          "name": "_amount",
          "type": "uint256"
        }
      ],
      "name": "sell",
      "type": "event"
    },
    {
      "inputs": [
        {
          "internalType": "address",
          "name": "_tokenAddr",
          "type": "address"
        },
        {
          "internalType": "uint256",
          "name": "_cost",
          "type": "uint256"
        }
      ],
      "name": "buyToken",
      "outputs": [],
      "stateMutability": "payable",
      "type": "function"
    },
    {
      "inputs": [],
      "name": "feed",
      "outputs": [
        {
          "internalType": "contract AggregatorV3Interface",
          "name": "",
          "type": "address"
        }
      ],
      "stateMutability": "view",
      "type": "function"
    },
    {
      "inputs": [],
      "name": "getLatestPrice",
      "outputs": [
        {
          "internalType": "int256",
          "name": "",
          "type": "int256"
        }
      ],
      "stateMutability": "view",
      "type": "function"
    },
    {
      "inputs": [
        {
          "internalType": "address",
          "name": "_tokenAddr",
          "type": "address"
        }
      ],
      "name": "getPrice",
      "outputs": [
        {
          "internalType": "int256",
          "name": "",
          "type": "int256"
        }
      ],
      "stateMutability": "nonpayable",
      "type": "function"
    },
    {
      "inputs": [
        {
          "internalType": "address",
          "name": "_tokenAddr",
          "type": "address"
        },
        {
          "internalType": "uint256",
          "name": "_cost",
          "type": "uint256"
        }
      ],
      "name": "sellToken",
      "outputs": [],
      "stateMutability": "payable",
      "type": "function"
    },
    {
      "inputs": [
        {
          "internalType": "address",
          "name": "",
          "type": "address"
        }
      ],
      "name": "supportedTokenAddr",
      "outputs": [
        {
          "internalType": "address",
          "name": "",
          "type": "address"
        }
      ],
      "stateMutability": "view",
      "type": "function"
    },
    {
      "inputs": [
        {
          "internalType": "address",
          "name": "",
          "type": "address"
        }
      ],
      "name": "tokenInterfacesForChainlink",
      "outputs": [
        {
          "internalType": "contract AggregatorV3Interface",
          "name": "",
          "type": "address"
        }
      ],
      "stateMutability": "view",
      "type": "function"
    }
  ],
  "bytecode": "0x60806040523480156200001157600080fd5b5060405162001c6f38038062001c6f833981810160405281019062000037919062000308565b60005b825181101562000111578181815181106200005a57620000596200038d565b5b60200260200101516000808584815181106200007b576200007a6200038d565b5b602002602001015173ffffffffffffffffffffffffffffffffffffffff1673ffffffffffffffffffffffffffffffffffffffff16815260200190815260200160002060006101000a81548173ffffffffffffffffffffffffffffffffffffffff021916908373ffffffffffffffffffffffffffffffffffffffff16021790555080806200010890620003f5565b9150506200003a565b50505062000443565b6000604051905090565b600080fd5b600080fd5b600080fd5b6000601f19601f8301169050919050565b7f4e487b7100000000000000000000000000000000000000000000000000000000600052604160045260246000fd5b6200017e8262000133565b810181811067ffffffffffffffff82111715620001a0576200019f62000144565b5b80604052505050565b6000620001b56200011a565b9050620001c3828262000173565b919050565b600067ffffffffffffffff821115620001e657620001e562000144565b5b602082029050602081019050919050565b600080fd5b600073ffffffffffffffffffffffffffffffffffffffff82169050919050565b60006200022982620001fc565b9050919050565b6200023b816200021c565b81146200024757600080fd5b50565b6000815190506200025b8162000230565b92915050565b6000620002786200027284620001c8565b620001a9565b905080838252602082019050602084028301858111156200029e576200029d620001f7565b5b835b81811015620002cb5780620002b688826200024a565b845260208401935050602081019050620002a0565b5050509392505050565b600082601f830112620002ed57620002ec6200012e565b5b8151620002ff84826020860162000261565b91505092915050565b6000806040838503121562000322576200032162000124565b5b600083015167ffffffffffffffff81111562000343576200034262000129565b5b6200035185828601620002d5565b925050602083015167ffffffffffffffff81111562000375576200037462000129565b5b6200038385828601620002d5565b9150509250929050565b7f4e487b7100000000000000000000000000000000000000000000000000000000600052603260045260246000fd5b7f4e487b7100000000000000000000000000000000000000000000000000000000600052601160045260246000fd5b6000819050919050565b60006200040282620003eb565b91507fffffffffffffffffffffffffffffffffffffffffffffffffffffffffffffffff821415620004385762000437620003bc565b5b600182019050919050565b61181c80620004536000396000f3fe6080604052600436106100705760003560e01c80635923737b1161004e5780635923737b1461011a57806368f8fc10146101575780638e15f47314610173578063f464e7db1461019e57610070565b8063096db4d61461007557806337a7b7d8146100b257806341976e09146100dd575b600080fd5b34801561008157600080fd5b5061009c60048036038101906100979190610ef5565b6101ba565b6040516100a99190610f31565b60405180910390f35b3480156100be57600080fd5b506100c76101ed565b6040516100d49190610fab565b60405180910390f35b3480156100e957600080fd5b5061010460048036038101906100ff9190610ef5565b610213565b6040516101119190610fdf565b60405180910390f35b34801561012657600080fd5b50610141600480360381019061013c9190610ef5565b610233565b60405161014e9190610fab565b60405180910390f35b610171600480360381019061016c9190611030565b610266565b005b34801561017f57600080fd5b506101886107c9565b6040516101959190610fdf565b60405180910390f35b6101b860048036038101906101b39190611030565b610891565b005b60006020528060005260406000206000915054906101000a900473ffffffffffffffffffffffffffffffffffffffff1681565b600260009054906101000a900473ffffffffffffffffffffffffffffffffffffffff1681565b600061021e82610b57565b60006102286107c9565b905080915050919050565b60016020528060005260406000206000915054906101000a900473ffffffffffffffffffffffffffffffffffffffff1681565b81600073ffffffffffffffffffffffffffffffffffffffff166000808373ffffffffffffffffffffffffffffffffffffffff1673ffffffffffffffffffffffffffffffffffffffff16815260200190815260200160002060009054906101000a900473ffffffffffffffffffffffffffffffffffffffff1673ffffffffffffffffffffffffffffffffffffffff161415610335576040517f08c379a000000000000000000000000000000000000000000000000000000000815260040161032c906110cd565b60405180910390fd5b6103736040518060400160405280600481526020017f686f676500000000000000000000000000000000000000000000000000000000815250610c02565b60008390506103b76040518060400160405280600981526020017f6d73672e76616c7565000000000000000000000000000000000000000000000081525034610c9b565b6103f66040518060400160405280600581526020017f5f636f737400000000000000000000000000000000000000000000000000000081525084610c9b565b6104346040518060400160405280600781526020017f2b2b2b2b2b2b2b00000000000000000000000000000000000000000000000000815250610c02565b823414610476576040517f08c379a000000000000000000000000000000000000000000000000000000000815260040161046d90611139565b60405180910390fd5b600061048185610213565b9050600081856104919190611188565b828661049d91906111e8565b6104a79190611219565b90506104e86040518060400160405280600781526020017f616d6f756e743a0000000000000000000000000000000000000000000000000081525082610c9b565b6105af6040518060400160405280600881526020017f62616c616e63653a0000000000000000000000000000000000000000000000008152508473ffffffffffffffffffffffffffffffffffffffff166370a08231306040518263ffffffff1660e01b815260040161055a9190610f31565b60206040518083038186803b15801561057257600080fd5b505afa158015610586573d6000803e3d6000fd5b505050506040513d601f19601f820116820180604052508101906105aa9190611262565b610c9b565b808373ffffffffffffffffffffffffffffffffffffffff166370a08231306040518263ffffffff1660e01b81526004016105e99190610f31565b60206040518083038186803b15801561060157600080fd5b505afa158015610615573d6000803e3d6000fd5b505050506040513d601f19601f820116820180604052508101906106399190611262565b101561067a576040517f08c379a0000000000000000000000000000000000000000000000000000000008152600401610671906112db565b60405180910390fd5b6106b86040518060400160405280600781526020017f7e7e7e7e7e7e7e00000000000000000000000000000000000000000000000000815250610c02565b8273ffffffffffffffffffffffffffffffffffffffff1663a9059cbb33836040518363ffffffff1660e01b81526004016106f392919061130a565b602060405180830381600087803b15801561070d57600080fd5b505af1158015610721573d6000803e3d6000fd5b505050506040513d601f19601f82011682018060405250810190610745919061136b565b506107846040518060400160405280600b81526020017f3b3b3b3b3b3b3b3b3b3b3b000000000000000000000000000000000000000000815250610c02565b7fa9d424e2b661a4cf6090e4849fd2d81c17106afa4b26188dcc493a69ea4c2b5e338787846040516107b99493929190611398565b60405180910390a1505050505050565b600080600260009054906101000a900473ffffffffffffffffffffffffffffffffffffffff1673ffffffffffffffffffffffffffffffffffffffff1663feaf968c6040518163ffffffff1660e01b815260040160a06040518083038186803b15801561083457600080fd5b505afa158015610848573d6000803e3d6000fd5b505050506040513d601f19601f8201168201806040525081019061086c919061144b565b50505091505061087b81610d37565b6305f5e1008161088b91906114c6565b91505090565b6000829050818173ffffffffffffffffffffffffffffffffffffffff166370a08231336040518263ffffffff1660e01b81526004016108d09190610f31565b60206040518083038186803b1580156108e857600080fd5b505afa1580156108fc573d6000803e3d6000fd5b505050506040513d601f19601f820116820180604052508101906109209190611262565b1015610961576040517f08c379a00000000000000000000000000000000000000000000000000000000081526004016109589061157c565b60405180910390fd5b600061096b6107c9565b90506000818461097b9190611188565b828561098791906111e8565b6109919190611219565b9050804710156109d6576040517f08c379a00000000000000000000000000000000000000000000000000000000081526004016109cd906115e8565b60405180910390fd5b8273ffffffffffffffffffffffffffffffffffffffff166323b872dd3330876040518463ffffffff1660e01b8152600401610a1393929190611608565b602060405180830381600087803b158015610a2d57600080fd5b505af1158015610a41573d6000803e3d6000fd5b505050506040513d601f19601f82011682018060405250810190610a65919061136b565b5060003373ffffffffffffffffffffffffffffffffffffffff1682604051610a8c90611670565b60006040518083038185875af1925050503d8060008114610ac9576040519150601f19603f3d011682016040523d82523d6000602084013e610ace565b606091505b5050905080610b12576040517f08c379a0000000000000000000000000000000000000000000000000000000008152600401610b09906116d1565b60405180910390fd5b7f31de7d15e9e6c3b6f319c842341b735c0f9d7a5d06944314495f952400bd74c033878785604051610b479493929190611398565b60405180910390a1505050505050565b610b6081610dd0565b6000808273ffffffffffffffffffffffffffffffffffffffff1673ffffffffffffffffffffffffffffffffffffffff16815260200190815260200160002060009054906101000a900473ffffffffffffffffffffffffffffffffffffffff16600260006101000a81548173ffffffffffffffffffffffffffffffffffffffff021916908373ffffffffffffffffffffffffffffffffffffffff16021790555050565b610c9881604051602401610c169190611779565b6040516020818303038152906040527f41304fac000000000000000000000000000000000000000000000000000000007bffffffffffffffffffffffffffffffffffffffffffffffffffffffff19166020820180517bffffffffffffffffffffffffffffffffffffffffffffffffffffffff8381831617835250505050610e69565b50565b610d338282604051602401610cb192919061179b565b6040516020818303038152906040527fb60e72cc000000000000000000000000000000000000000000000000000000007bffffffffffffffffffffffffffffffffffffffffffffffffffffffff19166020820180517bffffffffffffffffffffffffffffffffffffffffffffffffffffffff8381831617835250505050610e69565b5050565b610dcd81604051602401610d4b91906117cb565b6040516020818303038152906040527ff82c50f1000000000000000000000000000000000000000000000000000000007bffffffffffffffffffffffffffffffffffffffffffffffffffffffff19166020820180517bffffffffffffffffffffffffffffffffffffffffffffffffffffffff8381831617835250505050610e69565b50565b610e6681604051602401610de49190610f31565b6040516020818303038152906040527f2c2ecbc2000000000000000000000000000000000000000000000000000000007bffffffffffffffffffffffffffffffffffffffffffffffffffffffff19166020820180517bffffffffffffffffffffffffffffffffffffffffffffffffffffffff8381831617835250505050610e69565b50565b60008151905060006a636f6e736f6c652e6c6f679050602083016000808483855afa5050505050565b600080fd5b600073ffffffffffffffffffffffffffffffffffffffff82169050919050565b6000610ec282610e97565b9050919050565b610ed281610eb7565b8114610edd57600080fd5b50565b600081359050610eef81610ec9565b92915050565b600060208284031215610f0b57610f0a610e92565b5b6000610f1984828501610ee0565b91505092915050565b610f2b81610eb7565b82525050565b6000602082019050610f466000830184610f22565b92915050565b6000819050919050565b6000610f71610f6c610f6784610e97565b610f4c565b610e97565b9050919050565b6000610f8382610f56565b9050919050565b6000610f9582610f78565b9050919050565b610fa581610f8a565b82525050565b6000602082019050610fc06000830184610f9c565b92915050565b6000819050919050565b610fd981610fc6565b82525050565b6000602082019050610ff46000830184610fd0565b92915050565b6000819050919050565b61100d81610ffa565b811461101857600080fd5b50565b60008135905061102a81611004565b92915050565b6000806040838503121561104757611046610e92565b5b600061105585828601610ee0565b92505060206110668582860161101b565b9150509250929050565b600082825260208201905092915050565b7f5468697320746f6b656e206973206e6f7420737570706f727465640000000000600082015250565b60006110b7601b83611070565b91506110c282611081565b602082019050919050565b600060208201905081810360008301526110e6816110aa565b9050919050565b7f496e73756666696369656e742066756e64000000000000000000000000000000600082015250565b6000611123601183611070565b915061112e826110ed565b602082019050919050565b6000602082019050818103600083015261115281611116565b9050919050565b7f4e487b7100000000000000000000000000000000000000000000000000000000600052601260045260246000fd5b600061119382610ffa565b915061119e83610ffa565b9250826111ae576111ad611159565b5b828206905092915050565b7f4e487b7100000000000000000000000000000000000000000000000000000000600052601160045260246000fd5b60006111f382610ffa565b91506111fe83610ffa565b92508261120e5761120d611159565b5b828204905092915050565b600061122482610ffa565b915061122f83610ffa565b925082821015611242576112416111b9565b5b828203905092915050565b60008151905061125c81611004565b92915050565b60006020828403121561127857611277610e92565b5b60006112868482850161124d565b91505092915050565b7f546f6b656e20736f6c64206f7574000000000000000000000000000000000000600082015250565b60006112c5600e83611070565b91506112d08261128f565b602082019050919050565b600060208201905081810360008301526112f4816112b8565b9050919050565b61130481610ffa565b82525050565b600060408201905061131f6000830185610f22565b61132c60208301846112fb565b9392505050565b60008115159050919050565b61134881611333565b811461135357600080fd5b50565b6000815190506113658161133f565b92915050565b60006020828403121561138157611380610e92565b5b600061138f84828501611356565b91505092915050565b60006080820190506113ad6000830187610f22565b6113ba6020830186610f22565b6113c760408301856112fb565b6113d460608301846112fb565b95945050505050565b600069ffffffffffffffffffff82169050919050565b6113fc816113dd565b811461140757600080fd5b50565b600081519050611419816113f3565b92915050565b61142881610fc6565b811461143357600080fd5b50565b6000815190506114458161141f565b92915050565b600080600080600060a0868803121561146757611466610e92565b5b60006114758882890161140a565b955050602061148688828901611436565b94505060406114978882890161124d565b93505060606114a88882890161124d565b92505060806114b98882890161140a565b9150509295509295909350565b60006114d182610fc6565b91506114dc83610fc6565b9250826114ec576114eb611159565b5b600160000383147f800000000000000000000000000000000000000000000000000000000000000083141615611525576115246111b9565b5b828205905092915050565b7f496e73756666696369656e7420746f6b656e2062616c616e6365000000000000600082015250565b6000611566601a83611070565b915061157182611530565b602082019050919050565b6000602082019050818103600083015261159581611559565b9050919050565b7f44657820646f6573206e6f74206861766520656e6f7567682066756e64730000600082015250565b60006115d2601e83611070565b91506115dd8261159c565b602082019050919050565b60006020820190508181036000830152611601816115c5565b9050919050565b600060608201905061161d6000830186610f22565b61162a6020830185610f22565b61163760408301846112fb565b949350505050565b600081905092915050565b50565b600061165a60008361163f565b91506116658261164a565b600082019050919050565b600061167b8261164d565b9150819050919050565b7f455448207472616e73666572206661696c656400000000000000000000000000600082015250565b60006116bb601383611070565b91506116c682611685565b602082019050919050565b600060208201905081810360008301526116ea816116ae565b9050919050565b600081519050919050565b60005b8381101561171a5780820151818401526020810190506116ff565b83811115611729576000848401525b50505050565b6000601f19601f8301169050919050565b600061174b826116f1565b6117558185611070565b93506117658185602086016116fc565b61176e8161172f565b840191505092915050565b600060208201905081810360008301526117938184611740565b905092915050565b600060408201905081810360008301526117b58185611740565b90506117c460208301846112fb565b9392505050565b60006020820190506117e060008301846112fb565b9291505056fea2646970667358221220c741d5b5288cddeec28dab98445af7f6b1948d918228d5b030258d1fa130c22c64736f6c63430008090033",
  "linkReferences": {},
  "deployedLinkReferences": {}
}